{"abi":[{"type":"constructor","inputs":[{"name":"feeRate","type":"uint256","internalType":"uint256"},{"name":"treasury","type":"address","internalType":"address"}],"stateMutability":"nonpayable"},{"type":"function","name":"CANCELED","inputs":[],"outputs":[{"name":"","type":"uint8","internalType":"uint8"}],"stateMutability":"view"},{"type":"function","name":"FOR_SALE","inputs":[],"outputs":[{"name":"","type":"uint8","internalType":"uint8"}],"stateMutability":"view"},{"type":"function","name":"SOLD","inputs":[],"outputs":[{"name":"","type":"uint8","internalType":"uint8"}],"stateMutability":"view"},{"type":"function","name":"buyNFT","inputs":[{"name":"nft","type":"address","internalType":"address"},{"name":"tokenId","type":"uint256","internalType":"uint256"}],"outputs":[],"stateMutability":"nonpayable"},{"type":"function","name":"cancelList","inputs":[{"name":"nft","type":"address","internalType":"address"},{"name":"tokenId","type":"uint256","internalType":"uint256"}],"outputs":[],"stateMutability":"nonpayable"},{"type":"function","name":"defaultFeeRate","inputs":[],"outputs":[{"name":"","type":"uint256","internalType":"uint256"}],"stateMutability":"view"},{"type":"function","name":"listNFT","inputs":[{"name":"nft","type":"address","internalType":"address"},{"name":"tokenId","type":"uint256","internalType":"uint256"},{"name":"price","type":"uint256","internalType":"uint256"},{"name":"currency","type":"address","internalType":"address"}],"outputs":[],"stateMutability":"nonpayable"},{"type":"function","name":"querySaleList","inputs":[{"name":"nft","type":"address","internalType":"address"},{"name":"tokenId","type":"uint256","internalType":"uint256"}],"outputs":[{"name":"","type":"tuple","internalType":"struct NFTMarket.Item","components":[{"name":"tokenId","type":"uint256","internalType":"uint256"},{"name":"nft","type":"address","internalType":"address"},{"name":"currency","type":"address","internalType":"address"},{"name":"seller","type":"address","internalType":"address"},{"name":"buyer","type":"address","internalType":"address"},{"name":"status","type":"uint8","internalType":"uint8"},{"name":"price","type":"uint256","internalType":"uint256"}]}],"stateMutability":"view"},{"type":"function","name":"saleList","inputs":[{"name":"nft","type":"address","internalType":"address"},{"name":"tokenId","type":"uint256","internalType":"uint256"}],"outputs":[{"name":"tokenId","type":"uint256","internalType":"uint256"},{"name":"nft","type":"address","internalType":"address"},{"name":"currency","type":"address","internalType":"address"},{"name":"seller","type":"address","internalType":"address"},{"name":"buyer","type":"address","internalType":"address"},{"name":"status","type":"uint8","internalType":"uint8"},{"name":"price","type":"uint256","internalType":"uint256"}],"stateMutability":"view"},{"type":"function","name":"tokenRecieved","inputs":[{"name":"from","type":"address","internalType":"address"},{"name":"value","type":"uint256","internalType":"uint256"},{"name":"data","type":"bytes","internalType":"bytes"}],"outputs":[{"name":"","type":"bool","internalType":"bool"}],"stateMutability":"nonpayable"},{"type":"event","name":"ItemCanceled","inputs":[{"name":"nft","type":"address","indexed":true,"internalType":"address"},{"name":"tokenId","type":"uint256","indexed":false,"internalType":"uint256"},{"name":"status","type":"uint8","indexed":false,"internalType":"uint8"}],"anonymous":false},{"type":"event","name":"ItemListed","inputs":[{"name":"nft","type":"address","indexed":true,"internalType":"address"},{"name":"tokenId","type":"uint256","indexed":false,"internalType":"uint256"},{"name":"price","type":"uint256","indexed":true,"internalType":"uint256"},{"name":"currency","type":"address","indexed":false,"internalType":"address"},{"name":"seller","type":"address","indexed":true,"internalType":"address"},{"name":"status","type":"uint8","indexed":false,"internalType":"uint8"}],"anonymous":false},{"type":"event","name":"ItemSold","inputs":[{"name":"nft","type":"address","indexed":true,"internalType":"address"},{"name":"tokenId","type":"uint256","indexed":false,"internalType":"uint256"},{"name":"buyer","type":"address","indexed":true,"internalType":"address"},{"name":"status","type":"uint8","indexed":false,"internalType":"uint8"}],"anonymous":false},{"type":"error","name":"AddressEmptyCode","inputs":[{"name":"target","type":"address","internalType":"address"}]},{"type":"error","name":"AddressInsufficientBalance","inputs":[{"name":"account","type":"address","internalType":"address"}]},{"type":"error","name":"FailedInnerCall","inputs":[]},{"type":"error","name":"SafeERC20FailedOperation","inputs":[{"name":"token","type":"address","internalType":"address"}]}],"bytecode":{"object":"0x60806040526000805462ffffff19166202010017905534801561002157600080fd5b5060405161159838038061159883398101604081905261004091610087565b600291909155600080546001600160a01b039092166301000000026301000000600160b81b0319909216919091179055600180546001600160a01b031916331790556100c4565b6000806040838503121561009a57600080fd5b825160208401519092506001600160a01b03811681146100b957600080fd5b809150509250929050565b6114c5806100d36000396000f3fe608060405234801561001057600080fd5b506004361061009e5760003560e01c80639969b932116100665780639969b932146101945780639aa2a94014610246578063a82ba76f14610258578063d68cdc521461026b578063f2f4c1da1461027e57600080fd5b806307d33455146100a357806314e92538146100bf5780631af71a8e1461013d5780632403de3f1461015257806374467a1e14610175575b600080fd5b6100ac60025481565b6040519081526020015b60405180910390f35b6100d26100cd36600461118e565b610291565b6040516100b69190600060e08201905082518252602083015160018060a01b038082166020850152806040860151166040850152806060860151166060850152806080860151166080850152505060ff60a08401511660a083015260c083015160c083015292915050565b61015061014b36600461118e565b610350565b005b610165610160366004611201565b610633565b60405190151581526020016100b6565b6000546101829060ff1681565b60405160ff90911681526020016100b6565b6101fe6101a236600461118e565b6003602081815260009384526040808520909152918352912080546001820154600283015493830154600484015460059094015492946001600160a01b03928316949083169391831692811691600160a01b90910460ff169087565b604080519788526001600160a01b039687166020890152948616948701949094529184166060860152909216608084015260ff90911660a083015260c082015260e0016100b6565b60005461018290610100900460ff1681565b61015061026636600461118e565b6107b0565b6101506102793660046112b2565b61089d565b6000546101829062010000900460ff1681565b6040805160e081018252600080825260208201819052918101829052606081018290526080810182905260a0810182905260c0810191909152506001600160a01b038281166000908152600360208181526040808420868552825292839020835160e0810185528154815260018201548616928101929092526002810154851693820193909352908201548316606082015260048201549283166080820152600160a01b90920460ff1660a08301526005015460c08201525b92915050565b61035a8282610ab7565b600060036000846001600160a01b03166001600160a01b0316815260200190815260200160002060008381526020019081526020016000206040518060e0016040529081600082015481526020016001820160009054906101000a90046001600160a01b03166001600160a01b03166001600160a01b031681526020016002820160009054906101000a90046001600160a01b03166001600160a01b03166001600160a01b031681526020016003820160009054906101000a90046001600160a01b03166001600160a01b03166001600160a01b031681526020016004820160009054906101000a90046001600160a01b03166001600160a01b03166001600160a01b031681526020016004820160149054906101000a900460ff1660ff1660ff1681526020016005820154815250509050600060029054906101000a900460ff168160a0019060ff16908160ff16815250508060036000856001600160a01b03166001600160a01b0316815260200190815260200160002060008481526020019081526020016000206000820151816000015560208201518160010160006101000a8154816001600160a01b0302191690836001600160a01b0316021790555060408201518160020160006101000a8154816001600160a01b0302191690836001600160a01b0316021790555060608201518160030160006101000a8154816001600160a01b0302191690836001600160a01b0316021790555060808201518160040160006101000a8154816001600160a01b0302191690836001600160a01b0316021790555060a08201518160040160146101000a81548160ff021916908360ff16021790555060c08201518160050155905050826001600160a01b03167fa15bb2d0a66a7857cafbf900435056d272f41cda35e836122b1841783f24889e83600060029054906101000a900460ff1660405161062692919091825260ff16602082015260400190565b60405180910390a2505050565b6000808280602001905181019061064a9190611312565b60208181015182516001600160a01b03808316600090815260038086526040808320858452875291829020825160e08101845281548152600182015485169781019790975260028101548416928701929092528101548216606086015260048101549182166080860152600160a01b90910460ff1660a08501526005015460c084018190529394509092909190871461071f5760405162461bcd60e51b81526020600482015260126024820152712a37b5b2b71030b6b7bab73a1032b93937b960711b60448201526064015b60405180910390fd5b6107298189610b3c565b61073482828a610be1565b876001600160a01b031681602001516001600160a01b03167f5a7732b57155a5db02df5fbf352aafb55c6e79f1d6f8c1e5a103cbc3b2b9609c84600060019054906101000a900460ff1660405161079892919091825260ff16602082015260400190565b60405180910390a360019450505050505b9392505050565b6001600160a01b038281166000908152600360208181526040808420868552825292839020835160e0810185528154815260018201548616928101929092526002810154851693820193909352908201548316606082015260048201549283166080820152600160a01b90920460ff1660a08301526005015460c0820152336108398282610b3c565b610844838383610be1565b6000546040805185815261010090920460ff1660208301526001600160a01b0383811692908716917f5a7732b57155a5db02df5fbf352aafb55c6e79f1d6f8c1e5a103cbc3b2b9609c910160405180910390a350505050565b6108a78484610ab7565b60003390506040518060e00160405280858152602001866001600160a01b03168152602001836001600160a01b03168152602001826001600160a01b0316815260200160006001600160a01b0316815260200160008054906101000a900460ff1660ff1681526020018481525060036000876001600160a01b03166001600160a01b0316815260200190815260200160002060008681526020019081526020016000206000820151816000015560208201518160010160006101000a8154816001600160a01b0302191690836001600160a01b0316021790555060408201518160020160006101000a8154816001600160a01b0302191690836001600160a01b0316021790555060608201518160030160006101000a8154816001600160a01b0302191690836001600160a01b0316021790555060808201518160040160006101000a8154816001600160a01b0302191690836001600160a01b0316021790555060a08201518160040160146101000a81548160ff021916908360ff16021790555060c08201518160050155905050336001600160a01b031683866001600160a01b03167f90b88897ed08ec2cc732309701a07c2010c02596f8449dca23cbcfabf2be0662878660008054906101000a900460ff16604051610aa8939291909283526001600160a01b0391909116602083015260ff16604082015260600190565b60405180910390a45050505050565b610ac082610e3f565b610af65760405162461bcd60e51b8152602060048201526007602482015266139bdd0813919560ca1b6044820152606401610716565b610b008282610f28565b610b385760405162461bcd60e51b81526020600482015260096024820152682737ba1027bbb732b960b91b6044820152606401610716565b5050565b610b498260200151610e3f565b610b7f5760405162461bcd60e51b8152602060048201526007602482015266139bdd0813919560ca1b6044820152606401610716565b60a082015160ff161580610ba95750806001600160a01b031682606001516001600160a01b031614155b610b385760405162461bcd60e51b815260206004820152600960248201526843616e27742042757960b81b6044820152606401610716565b60008260200151905060008360c0015190506000846060015190506000856040015190508486608001906001600160a01b031690816001600160a01b031681525050600060019054906101000a900460ff168660a0019060ff16908160ff16815250508560036000866001600160a01b03166001600160a01b0316815260200190815260200160002060008981526020019081526020016000206000820151816000015560208201518160010160006101000a8154816001600160a01b0302191690836001600160a01b0316021790555060408201518160020160006101000a8154816001600160a01b0302191690836001600160a01b0316021790555060608201518160030160006101000a8154816001600160a01b0302191690836001600160a01b0316021790555060808201518160040160006101000a8154816001600160a01b0302191690836001600160a01b0316021790555060a08201518160040160146101000a81548160ff021916908360ff16021790555060c0820151816005015590505060006002546103e885610d7a91906113d5565b610d8491906113f7565b9050610da78684610d95848861140e565b6001600160a01b038616929190610fa7565b600054610dcb906001600160a01b0384811691899163010000009091041684610fa7565b604051632142170760e11b81526001600160a01b0384811660048301528781166024830152604482018a90528616906342842e0e90606401600060405180830381600087803b158015610e1d57600080fd5b505af1158015610e31573d6000803e3d6000fd5b505050505050505050505050565b6040516301ffc9a760e01b81526380ac58cd60e01b600482015260009082906001600160a01b038216906301ffc9a790602401602060405180830381865afa158015610e8f573d6000803e3d6000fd5b505050506040513d601f19601f82011682018060405250810190610eb39190611421565b806107a957506040516301ffc9a760e01b8152636cdb3d1360e11b60048201526001600160a01b038216906301ffc9a790602401602060405180830381865afa158015610f04573d6000803e3d6000fd5b505050506040513d601f19601f820116820180604052508101906107a99190611421565b6040516331a9108f60e11b81526004810182905260009033906001600160a01b03851690636352211e90602401602060405180830381865afa158015610f72573d6000803e3d6000fd5b505050506040513d601f19601f82011682018060405250810190610f969190611443565b6001600160a01b0316149392505050565b604080516001600160a01b0385811660248301528416604482015260648082018490528251808303909101815260849091019091526020810180516001600160e01b03166323b872dd60e01b179052611001908590611007565b50505050565b600061101c6001600160a01b0384168361106f565b9050805160001415801561104157508080602001905181019061103f9190611421565b155b1561106a57604051635274afe760e01b81526001600160a01b0384166004820152602401610716565b505050565b60606107a98383600084600080856001600160a01b031684866040516110959190611460565b60006040518083038185875af1925050503d80600081146110d2576040519150601f19603f3d011682016040523d82523d6000602084013e6110d7565b606091505b50915091506110e78683836110f1565b9695505050505050565b606082611106576111018261114d565b6107a9565b815115801561111d57506001600160a01b0384163b155b1561114657604051639996b31560e01b81526001600160a01b0385166004820152602401610716565b50806107a9565b80511561115d5780518082602001fd5b604051630a12f52160e11b815260040160405180910390fd5b50565b6001600160a01b038116811461117657600080fd5b600080604083850312156111a157600080fd5b82356111ac81611179565b946020939093013593505050565b634e487b7160e01b600052604160045260246000fd5b604051601f8201601f1916810167ffffffffffffffff811182821017156111f9576111f96111ba565b604052919050565b60008060006060848603121561121657600080fd5b833561122181611179565b92506020848101359250604085013567ffffffffffffffff8082111561124657600080fd5b818701915087601f83011261125a57600080fd5b81358181111561126c5761126c6111ba565b61127e601f8201601f191685016111d0565b9150808252888482850101111561129457600080fd5b80848401858401376000848284010152508093505050509250925092565b600080600080608085870312156112c857600080fd5b84356112d381611179565b9350602085013592506040850135915060608501356112f181611179565b939692955090935050565b805160ff8116811461130d57600080fd5b919050565b600060e0828403121561132457600080fd5b60405160e0810181811067ffffffffffffffff82111715611347576113476111ba565b60405282518152602083015161135c81611179565b6020820152604083015161136f81611179565b6040820152606083015161138281611179565b6060820152608083015161139581611179565b60808201526113a660a084016112fc565b60a082015260c083015160c08201528091505092915050565b634e487b7160e01b600052601160045260246000fd5b6000826113f257634e487b7160e01b600052601260045260246000fd5b500490565b808202811582820484141761034a5761034a6113bf565b8181038181111561034a5761034a6113bf565b60006020828403121561143357600080fd5b815180151581146107a957600080fd5b60006020828403121561145557600080fd5b81516107a981611179565b6000825160005b818110156114815760208186018101518583015201611467565b50600092019182525091905056fea2646970667358221220d5ce95acc86a2523f7fa20227c13a445479ce47aab2e3d95dcfe56d2c947b70a64736f6c63430008140033","linkReferences":{}},"methodIdentifiers":{"CANCELED()":"f2f4c1da","FOR_SALE()":"74467a1e","SOLD()":"9aa2a940","buyNFT(address,uint256)":"a82ba76f","cancelList(address,uint256)":"1af71a8e","defaultFeeRate()":"07d33455","listNFT(address,uint256,uint256,address)":"d68cdc52","querySaleList(address,uint256)":"14e92538","saleList(address,uint256)":"9969b932","tokenRecieved(address,uint256,bytes)":"2403de3f"},"id":40}