{"abi":[{"type":"constructor","inputs":[{"name":"feeRate","type":"uint256","internalType":"uint256"},{"name":"treasury","type":"address","internalType":"address"}],"stateMutability":"nonpayable"},{"type":"function","name":"CANCELED","inputs":[],"outputs":[{"name":"","type":"uint8","internalType":"uint8"}],"stateMutability":"view"},{"type":"function","name":"FOR_SALE","inputs":[],"outputs":[{"name":"","type":"uint8","internalType":"uint8"}],"stateMutability":"view"},{"type":"function","name":"SOLD","inputs":[],"outputs":[{"name":"","type":"uint8","internalType":"uint8"}],"stateMutability":"view"},{"type":"function","name":"buyNFT","inputs":[{"name":"nft","type":"address","internalType":"address"},{"name":"tokenId","type":"uint256","internalType":"uint256"}],"outputs":[],"stateMutability":"nonpayable"},{"type":"function","name":"cancelList","inputs":[{"name":"nft","type":"address","internalType":"address"},{"name":"tokenId","type":"uint256","internalType":"uint256"}],"outputs":[],"stateMutability":"nonpayable"},{"type":"function","name":"defaultFeeRate","inputs":[],"outputs":[{"name":"","type":"uint256","internalType":"uint256"}],"stateMutability":"view"},{"type":"function","name":"listNFT","inputs":[{"name":"nft","type":"address","internalType":"address"},{"name":"tokenId","type":"uint256","internalType":"uint256"},{"name":"price","type":"uint256","internalType":"uint256"},{"name":"currency","type":"address","internalType":"address"}],"outputs":[],"stateMutability":"nonpayable"},{"type":"function","name":"querySaleList","inputs":[{"name":"nft","type":"address","internalType":"address"},{"name":"tokenId","type":"uint256","internalType":"uint256"}],"outputs":[{"name":"","type":"tuple","internalType":"struct NFTMarket.Item","components":[{"name":"tokenId","type":"uint256","internalType":"uint256"},{"name":"nft","type":"address","internalType":"address"},{"name":"currency","type":"address","internalType":"address"},{"name":"seller","type":"address","internalType":"address"},{"name":"buyer","type":"address","internalType":"address"},{"name":"status","type":"uint8","internalType":"uint8"},{"name":"price","type":"uint256","internalType":"uint256"}]}],"stateMutability":"view"},{"type":"function","name":"saleList","inputs":[{"name":"nft","type":"address","internalType":"address"},{"name":"tokenId","type":"uint256","internalType":"uint256"}],"outputs":[{"name":"tokenId","type":"uint256","internalType":"uint256"},{"name":"nft","type":"address","internalType":"address"},{"name":"currency","type":"address","internalType":"address"},{"name":"seller","type":"address","internalType":"address"},{"name":"buyer","type":"address","internalType":"address"},{"name":"status","type":"uint8","internalType":"uint8"},{"name":"price","type":"uint256","internalType":"uint256"}],"stateMutability":"view"},{"type":"function","name":"tokenRecieved","inputs":[{"name":"from","type":"address","internalType":"address"},{"name":"value","type":"uint256","internalType":"uint256"},{"name":"data","type":"bytes","internalType":"bytes"}],"outputs":[{"name":"","type":"bool","internalType":"bool"}],"stateMutability":"nonpayable"},{"type":"event","name":"ItemCanceled","inputs":[{"name":"nft","type":"address","indexed":false,"internalType":"address"},{"name":"tokenId","type":"uint256","indexed":false,"internalType":"uint256"},{"name":"status","type":"uint8","indexed":false,"internalType":"uint8"}],"anonymous":false},{"type":"event","name":"ItemListed","inputs":[{"name":"nft","type":"address","indexed":false,"internalType":"address"},{"name":"tokenId","type":"uint256","indexed":false,"internalType":"uint256"},{"name":"price","type":"uint256","indexed":false,"internalType":"uint256"},{"name":"currency","type":"address","indexed":false,"internalType":"address"},{"name":"seller","type":"address","indexed":false,"internalType":"address"},{"name":"status","type":"uint8","indexed":false,"internalType":"uint8"}],"anonymous":false},{"type":"event","name":"ItemSold","inputs":[{"name":"nft","type":"address","indexed":false,"internalType":"address"},{"name":"tokenId","type":"uint256","indexed":false,"internalType":"uint256"},{"name":"buyer","type":"address","indexed":false,"internalType":"address"},{"name":"status","type":"uint8","indexed":false,"internalType":"uint8"}],"anonymous":false},{"type":"event","name":"onReceived","inputs":[{"name":"operator","type":"address","indexed":false,"internalType":"address"},{"name":"from","type":"address","indexed":false,"internalType":"address"},{"name":"tokenId","type":"uint256","indexed":false,"internalType":"uint256"},{"name":"data","type":"bytes","indexed":false,"internalType":"bytes"}],"anonymous":false},{"type":"error","name":"AddressEmptyCode","inputs":[{"name":"target","type":"address","internalType":"address"}]},{"type":"error","name":"AddressInsufficientBalance","inputs":[{"name":"account","type":"address","internalType":"address"}]},{"type":"error","name":"FailedInnerCall","inputs":[]},{"type":"error","name":"SafeERC20FailedOperation","inputs":[{"name":"token","type":"address","internalType":"address"}]}],"bytecode":{"object":"0x60806040526000805462ffffff19166202010017905534801561002157600080fd5b506040516115ac3803806115ac83398101604081905261004091610087565b600291909155600080546001600160a01b039092166301000000026301000000600160b81b0319909216919091179055600180546001600160a01b031916331790556100c4565b6000806040838503121561009a57600080fd5b825160208401519092506001600160a01b03811681146100b957600080fd5b809150509250929050565b6114d9806100d36000396000f3fe608060405234801561001057600080fd5b506004361061009e5760003560e01c80639969b932116100665780639969b932146101945780639aa2a94014610246578063a82ba76f14610258578063d68cdc521461026b578063f2f4c1da1461027e57600080fd5b806307d33455146100a357806314e92538146100bf5780631af71a8e1461013d5780632403de3f1461015257806374467a1e14610175575b600080fd5b6100ac60025481565b6040519081526020015b60405180910390f35b6100d26100cd3660046111a2565b610291565b6040516100b69190600060e08201905082518252602083015160018060a01b038082166020850152806040860151166040850152806060860151166060850152806080860151166080850152505060ff60a08401511660a083015260c083015160c083015292915050565b61015061014b3660046111a2565b610350565b005b610165610160366004611215565b61063e565b60405190151581526020016100b6565b6000546101829060ff1681565b60405160ff90911681526020016100b6565b6101fe6101a23660046111a2565b6003602081815260009384526040808520909152918352912080546001820154600283015493830154600484015460059094015492946001600160a01b03928316949083169391831692811691600160a01b90910460ff169087565b604080519788526001600160a01b039687166020890152948616948701949094529184166060860152909216608084015260ff90911660a083015260c082015260e0016100b6565b60005461018290610100900460ff1681565b6101506102663660046111a2565b6107af565b6101506102793660046112c6565b6108a4565b6000546101829062010000900460ff1681565b6040805160e081018252600080825260208201819052918101829052606081018290526080810182905260a0810182905260c0810191909152506001600160a01b038281166000908152600360208181526040808420868552825292839020835160e0810185528154815260018201548616928101929092526002810154851693820193909352908201548316606082015260048201549283166080820152600160a01b90920460ff1660a08301526005015460c08201525b92915050565b61035a8282610acb565b600060036000846001600160a01b03166001600160a01b0316815260200190815260200160002060008381526020019081526020016000206040518060e0016040529081600082015481526020016001820160009054906101000a90046001600160a01b03166001600160a01b03166001600160a01b031681526020016002820160009054906101000a90046001600160a01b03166001600160a01b03166001600160a01b031681526020016003820160009054906101000a90046001600160a01b03166001600160a01b03166001600160a01b031681526020016004820160009054906101000a90046001600160a01b03166001600160a01b03166001600160a01b031681526020016004820160149054906101000a900460ff1660ff1660ff1681526020016005820154815250509050600060029054906101000a900460ff168160a0019060ff16908160ff16815250508060036000856001600160a01b03166001600160a01b0316815260200190815260200160002060008481526020019081526020016000206000820151816000015560208201518160010160006101000a8154816001600160a01b0302191690836001600160a01b0316021790555060408201518160020160006101000a8154816001600160a01b0302191690836001600160a01b0316021790555060608201518160030160006101000a8154816001600160a01b0302191690836001600160a01b0316021790555060808201518160040160006101000a8154816001600160a01b0302191690836001600160a01b0316021790555060a08201518160040160146101000a81548160ff021916908360ff16021790555060c082015181600501559050507fa15bb2d0a66a7857cafbf900435056d272f41cda35e836122b1841783f24889e8383600060029054906101000a900460ff16604051610631939291906001600160a01b03939093168352602083019190915260ff16604082015260600190565b60405180910390a1505050565b600080828060200190518101906106559190611326565b60208181015182516001600160a01b03808316600090815260038086526040808320858452875291829020825160e08101845281548152600182015485169781019790975260028101548416928701929092528101548216606086015260048101549182166080860152600160a01b90910460ff1660a08501526005015460c084018190529394509092909190871461072a5760405162461bcd60e51b81526020600482015260126024820152712a37b5b2b71030b6b7bab73a1032b93937b960711b60448201526064015b60405180910390fd5b6107348189610b50565b61073f82828a610bf5565b602081810151600054604080516001600160a01b039384168152938401869052918b168383015260ff610100909104166060830152517f5a7732b57155a5db02df5fbf352aafb55c6e79f1d6f8c1e5a103cbc3b2b9609c9181900360800190a160019450505050505b9392505050565b6001600160a01b038281166000908152600360208181526040808420868552825292839020835160e0810185528154815260018201548616928101929092526002810154851693820193909352908201548316606082015260048201549283166080820152600160a01b90920460ff1660a08301526005015460c0820152336108388282610b50565b610843838383610bf5565b600054604080516001600160a01b0387811682526020820187905284168183015261010090920460ff166060830152517f5a7732b57155a5db02df5fbf352aafb55c6e79f1d6f8c1e5a103cbc3b2b9609c916080908290030190a150505050565b6108ae8484610acb565b60003390506040518060e00160405280858152602001866001600160a01b03168152602001836001600160a01b03168152602001826001600160a01b0316815260200160006001600160a01b0316815260200160008054906101000a900460ff1660ff1681526020018481525060036000876001600160a01b03166001600160a01b0316815260200190815260200160002060008681526020019081526020016000206000820151816000015560208201518160010160006101000a8154816001600160a01b0302191690836001600160a01b0316021790555060408201518160020160006101000a8154816001600160a01b0302191690836001600160a01b0316021790555060608201518160030160006101000a8154816001600160a01b0302191690836001600160a01b0316021790555060808201518160040160006101000a8154816001600160a01b0302191690836001600160a01b0316021790555060a08201518160040160146101000a81548160ff021916908360ff16021790555060c082015181600501559050507f90b88897ed08ec2cc732309701a07c2010c02596f8449dca23cbcfabf2be0662858585853360008054906101000a900460ff16604051610abc969594939291906001600160a01b039687168152602081019590955260408501939093529084166060840152909216608082015260ff9190911660a082015260c00190565b60405180910390a15050505050565b610ad482610e53565b610b0a5760405162461bcd60e51b8152602060048201526007602482015266139bdd0813919560ca1b6044820152606401610721565b610b148282610f3c565b610b4c5760405162461bcd60e51b81526020600482015260096024820152682737ba1027bbb732b960b91b6044820152606401610721565b5050565b610b5d8260200151610e53565b610b935760405162461bcd60e51b8152602060048201526007602482015266139bdd0813919560ca1b6044820152606401610721565b60a082015160ff161580610bbd5750806001600160a01b031682606001516001600160a01b031614155b610b4c5760405162461bcd60e51b815260206004820152600960248201526843616e27742042757960b81b6044820152606401610721565b60008260200151905060008360c0015190506000846060015190506000856040015190508486608001906001600160a01b031690816001600160a01b031681525050600060019054906101000a900460ff168660a0019060ff16908160ff16815250508560036000866001600160a01b03166001600160a01b0316815260200190815260200160002060008981526020019081526020016000206000820151816000015560208201518160010160006101000a8154816001600160a01b0302191690836001600160a01b0316021790555060408201518160020160006101000a8154816001600160a01b0302191690836001600160a01b0316021790555060608201518160030160006101000a8154816001600160a01b0302191690836001600160a01b0316021790555060808201518160040160006101000a8154816001600160a01b0302191690836001600160a01b0316021790555060a08201518160040160146101000a81548160ff021916908360ff16021790555060c0820151816005015590505060006002546103e885610d8e91906113e9565b610d98919061140b565b9050610dbb8684610da98488611422565b6001600160a01b038616929190610fbb565b600054610ddf906001600160a01b0384811691899163010000009091041684610fbb565b604051632142170760e11b81526001600160a01b0384811660048301528781166024830152604482018a90528616906342842e0e90606401600060405180830381600087803b158015610e3157600080fd5b505af1158015610e45573d6000803e3d6000fd5b505050505050505050505050565b6040516301ffc9a760e01b81526380ac58cd60e01b600482015260009082906001600160a01b038216906301ffc9a790602401602060405180830381865afa158015610ea3573d6000803e3d6000fd5b505050506040513d601f19601f82011682018060405250810190610ec79190611435565b806107a857506040516301ffc9a760e01b8152636cdb3d1360e11b60048201526001600160a01b038216906301ffc9a790602401602060405180830381865afa158015610f18573d6000803e3d6000fd5b505050506040513d601f19601f820116820180604052508101906107a89190611435565b6040516331a9108f60e11b81526004810182905260009033906001600160a01b03851690636352211e90602401602060405180830381865afa158015610f86573d6000803e3d6000fd5b505050506040513d601f19601f82011682018060405250810190610faa9190611457565b6001600160a01b0316149392505050565b604080516001600160a01b0385811660248301528416604482015260648082018490528251808303909101815260849091019091526020810180516001600160e01b03166323b872dd60e01b17905261101590859061101b565b50505050565b60006110306001600160a01b03841683611083565b905080516000141580156110555750808060200190518101906110539190611435565b155b1561107e57604051635274afe760e01b81526001600160a01b0384166004820152602401610721565b505050565b60606107a88383600084600080856001600160a01b031684866040516110a99190611474565b60006040518083038185875af1925050503d80600081146110e6576040519150601f19603f3d011682016040523d82523d6000602084013e6110eb565b606091505b50915091506110fb868383611105565b9695505050505050565b60608261111a5761111582611161565b6107a8565b815115801561113157506001600160a01b0384163b155b1561115a57604051639996b31560e01b81526001600160a01b0385166004820152602401610721565b50806107a8565b8051156111715780518082602001fd5b604051630a12f52160e11b815260040160405180910390fd5b50565b6001600160a01b038116811461118a57600080fd5b600080604083850312156111b557600080fd5b82356111c08161118d565b946020939093013593505050565b634e487b7160e01b600052604160045260246000fd5b604051601f8201601f1916810167ffffffffffffffff8111828210171561120d5761120d6111ce565b604052919050565b60008060006060848603121561122a57600080fd5b83356112358161118d565b92506020848101359250604085013567ffffffffffffffff8082111561125a57600080fd5b818701915087601f83011261126e57600080fd5b813581811115611280576112806111ce565b611292601f8201601f191685016111e4565b915080825288848285010111156112a857600080fd5b80848401858401376000848284010152508093505050509250925092565b600080600080608085870312156112dc57600080fd5b84356112e78161118d565b9350602085013592506040850135915060608501356113058161118d565b939692955090935050565b805160ff8116811461132157600080fd5b919050565b600060e0828403121561133857600080fd5b60405160e0810181811067ffffffffffffffff8211171561135b5761135b6111ce565b6040528251815260208301516113708161118d565b602082015260408301516113838161118d565b604082015260608301516113968161118d565b606082015260808301516113a98161118d565b60808201526113ba60a08401611310565b60a082015260c083015160c08201528091505092915050565b634e487b7160e01b600052601160045260246000fd5b60008261140657634e487b7160e01b600052601260045260246000fd5b500490565b808202811582820484141761034a5761034a6113d3565b8181038181111561034a5761034a6113d3565b60006020828403121561144757600080fd5b815180151581146107a857600080fd5b60006020828403121561146957600080fd5b81516107a88161118d565b6000825160005b81811015611495576020818601810151858301520161147b565b50600092019182525091905056fea264697066735822122013af4a23f9beba43e6502ca84ac6c94bae62802d9f8aaca36e96dbcf99661a3964736f6c63430008140033","linkReferences":{}},"methodIdentifiers":{"CANCELED()":"f2f4c1da","FOR_SALE()":"74467a1e","SOLD()":"9aa2a940","buyNFT(address,uint256)":"a82ba76f","cancelList(address,uint256)":"1af71a8e","defaultFeeRate()":"07d33455","listNFT(address,uint256,uint256,address)":"d68cdc52","querySaleList(address,uint256)":"14e92538","saleList(address,uint256)":"9969b932","tokenRecieved(address,uint256,bytes)":"2403de3f"},"id":40}